{
  "_format": "hh-sol-artifact-1",
  "contractName": "EHR",
  "sourceName": "contracts/EHR.sol",
  "abi": [
    {
      "inputs": [
        {
          "internalType": "string",
          "name": "_cid",
          "type": "string"
        },
        {
          "internalType": "string",
          "name": "_patientId",
          "type": "string"
        },
        {
          "internalType": "string",
          "name": "_uploaderId",
          "type": "string"
        },
        {
          "internalType": "string",
          "name": "_fileType",
          "type": "string"
        }
      ],
      "name": "addRecord",
      "outputs": [],
      "stateMutability": "nonpayable",
      "type": "function"
    },
    {
      "inputs": [
        {
          "internalType": "string",
          "name": "_patientId",
          "type": "string"
        },
        {
          "internalType": "string",
          "name": "_diagnosticId",
          "type": "string"
        }
      ],
      "name": "checkDiagnosticAccess",
      "outputs": [
        {
          "internalType": "bool",
          "name": "",
          "type": "bool"
        }
      ],
      "stateMutability": "view",
      "type": "function"
    },
    {
      "inputs": [
        {
          "internalType": "string",
          "name": "_patientId",
          "type": "string"
        }
      ],
      "name": "getRecords",
      "outputs": [
        {
          "components": [
            {
              "internalType": "string",
              "name": "cid",
              "type": "string"
            },
            {
              "internalType": "string",
              "name": "patientId",
              "type": "string"
            },
            {
              "internalType": "string",
              "name": "uploaderId",
              "type": "string"
            },
            {
              "internalType": "string",
              "name": "fileType",
              "type": "string"
            },
            {
              "internalType": "uint256",
              "name": "timestamp",
              "type": "uint256"
            }
          ],
          "internalType": "struct EHR.Record[]",
          "name": "",
          "type": "tuple[]"
        }
      ],
      "stateMutability": "view",
      "type": "function"
    },
    {
      "inputs": [
        {
          "internalType": "string",
          "name": "_patientId",
          "type": "string"
        },
        {
          "internalType": "string",
          "name": "_doctorId",
          "type": "string"
        }
      ],
      "name": "getRecordsForDoctor",
      "outputs": [
        {
          "components": [
            {
              "internalType": "string",
              "name": "cid",
              "type": "string"
            },
            {
              "internalType": "string",
              "name": "patientId",
              "type": "string"
            },
            {
              "internalType": "string",
              "name": "uploaderId",
              "type": "string"
            },
            {
              "internalType": "string",
              "name": "fileType",
              "type": "string"
            },
            {
              "internalType": "uint256",
              "name": "timestamp",
              "type": "uint256"
            }
          ],
          "internalType": "struct EHR.Record[]",
          "name": "",
          "type": "tuple[]"
        }
      ],
      "stateMutability": "view",
      "type": "function"
    },
    {
      "inputs": [
        {
          "internalType": "string",
          "name": "_patientId",
          "type": "string"
        },
        {
          "internalType": "string",
          "name": "_diagnosticId",
          "type": "string"
        }
      ],
      "name": "grantDiagnosticAccess",
      "outputs": [],
      "stateMutability": "nonpayable",
      "type": "function"
    },
    {
      "inputs": [
        {
          "internalType": "string",
          "name": "_patientId",
          "type": "string"
        },
        {
          "internalType": "string",
          "name": "_doctorId",
          "type": "string"
        }
      ],
      "name": "grantDoctorAccess",
      "outputs": [],
      "stateMutability": "nonpayable",
      "type": "function"
    },
    {
      "inputs": [
        {
          "internalType": "string",
          "name": "_patientId",
          "type": "string"
        },
        {
          "internalType": "string",
          "name": "_diagnosticId",
          "type": "string"
        }
      ],
      "name": "revokeDiagnosticAccess",
      "outputs": [],
      "stateMutability": "nonpayable",
      "type": "function"
    },
    {
      "inputs": [
        {
          "internalType": "string",
          "name": "_patientId",
          "type": "string"
        },
        {
          "internalType": "string",
          "name": "_doctorId",
          "type": "string"
        }
      ],
      "name": "revokeDoctorAccess",
      "outputs": [],
      "stateMutability": "nonpayable",
      "type": "function"
    }
  ],
  "bytecode": "0x608060405234801561001057600080fd5b5061138d806100206000396000f3fe608060405234801561001057600080fd5b50600436106100885760003560e01c80638e85f5641161005b5780638e85f5641461012557806397fd28b314610155578063d1834c9e14610171578063ec03e9071461018d57610088565b8063021d72441461008d57806329fdb4ef146100a95780637de22856146100c557806386e80b71146100f5575b600080fd5b6100a760048036038101906100a29190610bae565b6101a9565b005b6100c360048036038101906100be9190610bae565b6101ff565b005b6100df60048036038101906100da9190610bae565b610256565b6040516100ec9190610c41565b60405180910390f35b61010f600480360381019061010a9190610c5c565b6102a8565b60405161011c9190610e8a565b60405180910390f35b61013f600480360381019061013a9190610bae565b610577565b60405161014c9190610e8a565b60405180910390f35b61016f600480360381019061016a9190610eac565b6108ce565b005b61018b60048036038101906101869190610bae565b6109a6565b005b6101a760048036038101906101a29190610bae565b6109fd565b005b600180836040516101ba9190610fbf565b9081526020016040518091039020826040516101d69190610fbf565b908152602001604051809103902060006101000a81548160ff0219169083151502179055505050565b60016002836040516102119190610fbf565b90815260200160405180910390208260405161022d9190610fbf565b908152602001604051809103902060006101000a81548160ff0219169083151502179055505050565b60006002836040516102689190610fbf565b9081526020016040518091039020826040516102849190610fbf565b908152602001604051809103902060009054906101000a900460ff16905092915050565b60606000826040516102ba9190610fbf565b9081526020016040518091039020805480602002602001604051908101604052809291908181526020016000905b8282101561056c57838290600052602060002090600502016040518060a001604052908160008201805461031b90611005565b80601f016020809104026020016040519081016040528092919081815260200182805461034790611005565b80156103945780601f1061036957610100808354040283529160200191610394565b820191906000526020600020905b81548152906001019060200180831161037757829003601f168201915b505050505081526020016001820180546103ad90611005565b80601f01602080910402602001604051908101604052809291908181526020018280546103d990611005565b80156104265780601f106103fb57610100808354040283529160200191610426565b820191906000526020600020905b81548152906001019060200180831161040957829003601f168201915b5050505050815260200160028201805461043f90611005565b80601f016020809104026020016040519081016040528092919081815260200182805461046b90611005565b80156104b85780601f1061048d576101008083540402835291602001916104b8565b820191906000526020600020905b81548152906001019060200180831161049b57829003601f168201915b505050505081526020016003820180546104d190611005565b80601f01602080910402602001604051908101604052809291908181526020018280546104fd90611005565b801561054a5780601f1061051f5761010080835404028352916020019161054a565b820191906000526020600020905b81548152906001019060200180831161052d57829003601f168201915b50505050508152602001600482015481525050815260200190600101906102e8565b505050509050919050565b60606001836040516105899190610fbf565b9081526020016040518091039020826040516105a59190610fbf565b908152602001604051809103902060009054906101000a900460ff16610600576040517f08c379a00000000000000000000000000000000000000000000000000000000081526004016105f7906110b9565b60405180910390fd5b6000836040516106109190610fbf565b9081526020016040518091039020805480602002602001604051908101604052809291908181526020016000905b828210156108c257838290600052602060002090600502016040518060a001604052908160008201805461067190611005565b80601f016020809104026020016040519081016040528092919081815260200182805461069d90611005565b80156106ea5780601f106106bf576101008083540402835291602001916106ea565b820191906000526020600020905b8154815290600101906020018083116106cd57829003601f168201915b5050505050815260200160018201805461070390611005565b80601f016020809104026020016040519081016040528092919081815260200182805461072f90611005565b801561077c5780601f106107515761010080835404028352916020019161077c565b820191906000526020600020905b81548152906001019060200180831161075f57829003601f168201915b5050505050815260200160028201805461079590611005565b80601f01602080910402602001604051908101604052809291908181526020018280546107c190611005565b801561080e5780601f106107e35761010080835404028352916020019161080e565b820191906000526020600020905b8154815290600101906020018083116107f157829003601f168201915b5050505050815260200160038201805461082790611005565b80601f016020809104026020016040519081016040528092919081815260200182805461085390611005565b80156108a05780601f10610875576101008083540402835291602001916108a0565b820191906000526020600020905b81548152906001019060200180831161088357829003601f168201915b505050505081526020016004820154815250508152602001906001019061063e565b50505050905092915050565b6000836040516108de9190610fbf565b90815260200160405180910390206040518060a0016040528086815260200185815260200184815260200183815260200142815250908060018154018082558091505060019003906000526020600020906005020160009091909190915060008201518160000190816109519190611285565b5060208201518160010190816109679190611285565b50604082015181600201908161097d9190611285565b5060608201518160030190816109939190611285565b5060808201518160040155505050505050565b60006002836040516109b89190610fbf565b9081526020016040518091039020826040516109d49190610fbf565b908152602001604051809103902060006101000a81548160ff0219169083151502179055505050565b6000600183604051610a0f9190610fbf565b908152602001604051809103902082604051610a2b9190610fbf565b908152602001604051809103902060006101000a81548160ff0219169083151502179055505050565b6000604051905090565b600080fd5b600080fd5b600080fd5b600080fd5b6000601f19601f8301169050919050565b7f4e487b7100000000000000000000000000000000000000000000000000000000600052604160045260246000fd5b610abb82610a72565b810181811067ffffffffffffffff82111715610ada57610ad9610a83565b5b80604052505050565b6000610aed610a54565b9050610af98282610ab2565b919050565b600067ffffffffffffffff821115610b1957610b18610a83565b5b610b2282610a72565b9050602081019050919050565b82818337600083830152505050565b6000610b51610b4c84610afe565b610ae3565b905082815260208101848484011115610b6d57610b6c610a6d565b5b610b78848285610b2f565b509392505050565b600082601f830112610b9557610b94610a68565b5b8135610ba5848260208601610b3e565b91505092915050565b60008060408385031215610bc557610bc4610a5e565b5b600083013567ffffffffffffffff811115610be357610be2610a63565b5b610bef85828601610b80565b925050602083013567ffffffffffffffff811115610c1057610c0f610a63565b5b610c1c85828601610b80565b9150509250929050565b60008115159050919050565b610c3b81610c26565b82525050565b6000602082019050610c566000830184610c32565b92915050565b600060208284031215610c7257610c71610a5e565b5b600082013567ffffffffffffffff811115610c9057610c8f610a63565b5b610c9c84828501610b80565b91505092915050565b600081519050919050565b600082825260208201905092915050565b6000819050602082019050919050565b600081519050919050565b600082825260208201905092915050565b60005b83811015610d0b578082015181840152602081019050610cf0565b60008484015250505050565b6000610d2282610cd1565b610d2c8185610cdc565b9350610d3c818560208601610ced565b610d4581610a72565b840191505092915050565b6000819050919050565b610d6381610d50565b82525050565b600060a0830160008301518482036000860152610d868282610d17565b91505060208301518482036020860152610da08282610d17565b91505060408301518482036040860152610dba8282610d17565b91505060608301518482036060860152610dd48282610d17565b9150506080830151610de96080860182610d5a565b508091505092915050565b6000610e008383610d69565b905092915050565b6000602082019050919050565b6000610e2082610ca5565b610e2a8185610cb0565b935083602082028501610e3c85610cc1565b8060005b85811015610e785784840389528151610e598582610df4565b9450610e6483610e08565b925060208a01995050600181019050610e40565b50829750879550505050505092915050565b60006020820190508181036000830152610ea48184610e15565b905092915050565b60008060008060808587031215610ec657610ec5610a5e565b5b600085013567ffffffffffffffff811115610ee457610ee3610a63565b5b610ef087828801610b80565b945050602085013567ffffffffffffffff811115610f1157610f10610a63565b5b610f1d87828801610b80565b935050604085013567ffffffffffffffff811115610f3e57610f3d610a63565b5b610f4a87828801610b80565b925050606085013567ffffffffffffffff811115610f6b57610f6a610a63565b5b610f7787828801610b80565b91505092959194509250565b600081905092915050565b6000610f9982610cd1565b610fa38185610f83565b9350610fb3818560208601610ced565b80840191505092915050565b6000610fcb8284610f8e565b915081905092915050565b7f4e487b7100000000000000000000000000000000000000000000000000000000600052602260045260246000fd5b6000600282049050600182168061101d57607f821691505b6020821081036110305761102f610fd6565b5b50919050565b600082825260208201905092915050565b7f4163636573732044656e6965643a20446f63746f7220646f6573206e6f74206860008201527f617665207065726d697373696f6e2e0000000000000000000000000000000000602082015250565b60006110a3602f83611036565b91506110ae82611047565b604082019050919050565b600060208201905081810360008301526110d281611096565b9050919050565b60008190508160005260206000209050919050565b60006020601f8301049050919050565b600082821b905092915050565b60006008830261113b7fffffffffffffffffffffffffffffffffffffffffffffffffffffffffffffffff826110fe565b61114586836110fe565b95508019841693508086168417925050509392505050565b6000819050919050565b600061118261117d61117884610d50565b61115d565b610d50565b9050919050565b6000819050919050565b61119c83611167565b6111b06111a882611189565b84845461110b565b825550505050565b600090565b6111c56111b8565b6111d0818484611193565b505050565b5b818110156111f4576111e96000826111bd565b6001810190506111d6565b5050565b601f8211156112395761120a816110d9565b611213846110ee565b81016020851015611222578190505b61123661122e856110ee565b8301826111d5565b50505b505050565b600082821c905092915050565b600061125c6000198460080261123e565b1980831691505092915050565b6000611275838361124b565b9150826002028217905092915050565b61128e82610cd1565b67ffffffffffffffff8111156112a7576112a6610a83565b5b6112b18254611005565b6112bc8282856111f8565b600060209050601f8311600181146112ef57600084156112dd578287015190505b6112e78582611269565b86555061134f565b601f1984166112fd866110d9565b60005b8281101561132557848901518255600182019150602085019450602081019050611300565b86831015611342578489015161133e601f89168261124b565b8355505b6001600288020188555050505b50505050505056fea264697066735822122022804a100e2c61a2775f8c8aa323e0e8003d36f12436e42ca8f1426e88dcb65864736f6c63430008140033",
  "linkReferences": {},
  "deployedLinkReferences": {}
}